:020000040000FA
:10000000B8040020BD140000C1140000C314000097
:1000100000000000000000000000000000000000E0
:10002000000000000000000000000000C5140000F7
:100030000000000000000000C7140000D9120000FA
:10004000CB140000CB140000CB140000CB14000034
:10005000CB140000CB140000CB140000CB14000024
:10006000FD0F0000B9100000CB140000CB140000FD
:10007000CB140000CB14000047120000CB1400008A
:10008000CB140000CB140000CB140000CB140000F4
:10009000CB140000CB140000CB140000CB140000E4
:1000A000CB14000019110000CB140000CB14000089
:1000B000CB14000053110000CB140000CB1400003F
:1000C0000348854601F01AFA00480047590E00001F
:1000D000B8040020304800210162416A090A09027F
:1000E00019434162704705200007C26801210907D2
:1000F0000A43C260C2688A43C260704710B526488E
:10010000036AFF247134A34303628315002909D0D5
:10011000446B240A240214434463026A19430A43C9
:10012000026210BD016A1A431143016210BD1A48F0
:10013000016AFF2271329143016270471648816B58
:1001400009090901114381637047CB071248022254
:10015000002B02D0036A134303628B0702D5836A24
:1001600013438362490702D5C16A1143C1627047D4
:10017000CB0709480222002B02D0036A9343036293
:100180008B0702D5836A93438362490702D5C16A0C
:100190009143C1627047000000000E405C488168D6
:1001A000402291438160704752010A4310210A4363
:1001B00057494A628A6840231A438A60CA690C23F5
:1001C0009A430243CA61704752490420086150486B
:1001D0000168C0221143016030BF70474C4801687C
:1001E000C0221143016030BF704749480068C00712
:1001F00000D04948704746480068800702D5012072
:10020000C00370470020704710B501F02FF9434834
:10021000006810BD10B501F029F94048006810BD14
:100220003B4A1369DB08DB00034313619069000953
:10023000000108439061704770B5430E1B070ED054
:100240004300334C9B0F9B0010341B191C68C500E6
:100250002D0FC601F60EB540AC430C431C60830A5B
:100260001906090E0DD00103294C890F8900183495
:1002700009190C688005DBB2C00E83409C4314430F
:100280000C6070BD224A1169382399430143116102
:1002900070471F490A6802430A6070471C490A6890
:1002A00082430A607047C10F8A00194951188A6851
:1002B000C306DB0E0120984002438A607047C10FDD
:1002C0008A00134951188A68C306DB0E0120984042
:1002D00082438A607047124909684843114948615E
:1002E00000208861052008610869C003FCD57047BB
:1002F00010B51B2104460903054B03E00A46491EBD
:10030000002A03DDDA6820469043F7D110BD0000D3
:100310000002005000ED00E0001BB7008802002042
:100320008C02002000E000E0F0B5002301273C46ED
:100330009C400C4208D005685C000326A640B543EB
:100340001646A640354305605B1C082BEFD3F0BD75
:1003500010B58369140E8C4023438361C369120274
:10036000120A8A401343C36110BD826901238B4086
:100370009A438261C269024B8B409A43C2617047C3
:1003800001000100FFB5BE4883B00E46006811466B
:10039000019001F09DF80124BA4DFF2700902146FD
:1003A000009801F095F801210906884212D84119F8
:1003B00009020F0E032F00D20227394601F088F8F8
:1003C00001210904884205D8012801D085B205E041
:1003D000012503E06006040E112CE0D33946614389
:1003E0006943019801F074F87F1E6D1EFAB2ADB238
:1003F0000090012C2AD0022C2AD0042C2AD0082CC0
:100400002AD00320A04C23687108C900FF278F4021
:10041000BB438A40134323606168B6000722B240A1
:100420009143B04001436160A0680821B140084396
:10043000A0600698691C4843642101F049F831190D
:10044000401E4862CD60009807B0F0BD0420D9E797
:100450000020D7E70120D5E70220D3E730B50022FE
:1004600010460124234683400B4203D085002346D7
:10047000AB401A43401C0628F4D3834988681043D4
:10048000886030BD30B500207F4C012503462A46E8
:1004900082400A4202D082001219D360401C062812
:1004A000F5D330BD30B500221046012423468340E9
:1004B0000B4203D085002346AB401A43401C06285C
:1004C000F4D3714988689043886030BD10B56E4C94
:1004D0000F234034C800042906D2A16A83409943FF
:1004E00082401143A16210BD2038E16A83409943E4
:1004F00082401143E16210BD634AC80040320F23BD
:10050000042904D2916A834099439162704720384C
:100510008340D06A9843D06270475B4BC800403339
:10052000042904D2196B82401143196370472038A3
:100530008240586B02435A6370475348CA004030A8
:10054000042901D2006B01E0406B203AD040000743
:10055000000F704710064C4918434031086270473D
:100560004949802040310862704747484030C2699D
:100570000A43C261704744484030C2698A43C2613D
:10058000704730B5404C48084034636AC100FF25CD
:100590008D40AB438A401343636223039A689901F9
:1005A00081400A439A6030BD480837498A688B0108
:1005B00083409A438A6070473348403042698315CC
:1005C0008B401A43426170472F484030426983157F
:1005D0008B409A43426170472B48403082698315B3
:1005E0008B409A4382617047274840308069FF22E0
:1005F00001328A40104000D001207047224840302C
:100600004169012212041143416170471E48403084
:100610004169012212049143416170471A484030F8
:1006200081617047184840308069084000D001203F
:10063000704710B5144C4034606901235B04984343
:1006400001238B4018431043606110BD0E484030B9
:10065000426901238B409A43426170470A48403007
:10066000826901238B401A438261704706484030FB
:10067000806901228A40104000D0012070470000AC
:1006800088020020FFFF000000000440F8B5044687
:100690007B48069F85680126360335438560202BFD
:1006A00000D10023D800084310432060FFF7ACFDC1
:1006B000744D06462846002F15D03946304600F0C6
:1006C00007FF401C4008401EA84200D928466E493A
:1006D0004968090C09040143616041003046891CE6
:1006E00000F0F6FEF8BD0021F6E705200007C2681D
:1006F000012109030A43C260C2688A43C26060489C
:1007000082688A4382607047016C01221143016450
:100710007047016C0222114301647047816808220E
:1007200091438160704783680B4308210A43134358
:1007300083607047F8B50F460446FFF765FD514DDD
:1007400006462846002F15D03946304600F0C0FE38
:10075000401C4008401EA84200D928464A49496822
:10076000090C09040143616041003046891C00F016
:10077000AFFEF8BD0021F6E710B5036C3324240664
:10078000A34309070B4311060B43036401680122CD
:1007900052051143016010BD0168012252059143C9
:1007A0000160704710B50446FFF72EFD61684008F0
:1007B000C9B2491C00F08CFE10BDCA0704D0026803
:1007C00001235B041A4302608A0704D5C26B01232C
:1007D0001B041A43C2634A0704D5C26B01239B0260
:1007E0001A43C2630A0703D5026C08231A43026442
:1007F000CA0603D5026C04231A43026412228A43F8
:1008000003D1026C40231A43026414228A4304D1A8
:10081000016C01225205114301647047CA0704D0DC
:10082000026801235B049A4302608A0704D5C26B05
:1008300001231B049A43C2634A0704D5C26B0123F8
:100840009B029A43C2630A0703D5026C08239A43AA
:100850000264CA0603D5026C04239A43026412227E
:100860008A4303D1026C40239A43026414228A43D0
:1008700004D1016C012252059143016470470000CC
:1008800000020050FFFF000000000340052109079F
:100890004A6802434A6070470520000780694006A5
:1008A000C00F70470520000740687047294800685E
:1008B000C007C00F7047274900200860704710B577
:1008C000592116232348882202E001600360026058
:1008D0000468012CF9D110BD05200007006870479D
:1008E00005200007816801221143816070470520BF
:1008F000000781680222114381607047010E8A005F
:100900000521090751188B680122824013438B602F
:10091000886890438860704710B505221207936974
:1009200001242343936193690824A3430343936100
:100930009069062398430843906110BD0520000785
:1009400081694908490081618169062211438161F9
:1009500070470000000100508307FF22DB0E9A4021
:100960008907090E994000280BDA0007000F0838A4
:100970008308FF489B001818C36993430B43C36166
:1009800070478308FB489B001818036893430B4388
:1009900003607047F8B5F84C2068042108432060D4
:1009A0001020FFF7A5FC00210720FFF739FC3820B5
:1009B000FFF768FCF14D012202212846FFF73CFCBD
:1009C000EF4E372292040C213046FFF735FCED4FF5
:1009D000012251073846FFF72FFC0122D107EA48D0
:1009E000FFF72AFC01222021E848FFF725FC00221E
:1009F0002104E748FFF720FC01225102E548FFF7F8
:100A00001BFC01225103E448FFF716FC606910212A
:100A1000084360612846FFF746FCDE48FFF743FCC9
:100A2000DD48FFF740FCDD48FFF73DFCD848FFF705
:100A30003AFC3846FFF737FCD348FFF734FCD3487D
:100A4000FFF731FC3046FFF72EFCD548FFF72BFCB3
:100A5000F8BD10B5082000F022FA092000F01FFAB6
:100A60000E2000F01CFA192000F019FA022000F004
:100A700016FA1D2000F013FA01210820FFF76CFF81
:100A800001210920FFF768FF03210E20FFF764FF13
:100A900002211920FFF760FF00210220FFF75CFF11
:100AA00003211D20FFF758FF01220421BD48FFF755
:100AB0004FFC10BDF8B5BB4C0122803410212046FC
:100AC000FFF732FCB74D012211462846FFF72CFCF8
:100AD000B548002707623A4604212846FFF724FC60
:100AE000B04801227C214038FFF71EFCAD4E0122A8
:100AF000C03E10213046FFF717FC0022A2213046ED
:100B0000FFF712FC012240213046FFF70DFC0122C5
:100B100011463046FFF708FCA24E0022803E042119
:100B20003046FFF701FC012240212846FFF7FCFB7D
:100B3000012211462046FFF7F7FB9B484030076231
:100B400060680121C9040843606000220821204632
:100B5000FFF7EAFB68680121490408436860002246
:100B600002212846FFF7E0FB706839210904084399
:100B70007060002239213046FFF7D6FBA005016BDB
:100B80008A4A11400163016BFF2202321143016363
:100B9000416B874C21404163416B01239B02194308
:100BA0004163016B834B1943016383494B68834D58
:100BB0002B404B604B6808252B434B60C36B651083
:100BC0002B40C363C36B55002B43C363C36B7C4D86
:100BD0002B40C363C36B95012B43C3634B689343A3
:100BE0004B604A684A60416B764B19404163426BE7
:100BF000A9100A434263826B734D2A4082631F220D
:100C000092028263026B1A400263026B0A43026320
:100C1000C16B2140C163C16B04221143C163F8BDA4
:100C20006B486A4901606B490162704710B56A4CB4
:100C3000052200212046FFF781FA206A012108439E
:100C400020626648A0626648E0622046FFF77DFAAF
:100C500002212046FFF779FA04212046FFF775FAB2
:100C6000606A000A000280306062206A0121C902C5
:100C70000843206210BD38B55A4C2046FFF735FDB9
:100C8000002004220090102311042046FFF7FEFCF0
:100C90002068211588432060A06810210843A060C7
:100CA000A06804218843A06001212046FFF785FD4C
:100CB000206801210843206038BD70B54A4C3F21AF
:100CC0002046FFF7DFFB2068000A0002401C20607E
:100CD0002068FF2109028843FF300130206020682E
:100CE0000902884301210904401820606068C00897
:100CF000C000001D60606068702188434030606003
:100D00006068090188432115401860606068072108
:100D10000903884301218903401860606068072146
:100D20000904884301218904401860606068072134
:100D3000090588432101401860602C48A060002507
:100D40006562A562E56225636563A5632848E06086
:100D500020616061A061E06120623F212046FFF7D1
:100D600004FC21484030456100F0DAFBA01541E069
:100D700000ED00E000E400E000020050E0030C267B
:100D80001CFE2326F403CC27F503EC27F6034C6660
:100D9000103D8027E2038C2EE303CC2EEC034C2283
:100DA000FE03FC61C040005040420050FEFEFFFECA
:100DB000FBFBFFFF02E0000040000050F7F7FFFFE1
:100DC000BFBFFFFFEFEFFFFF8383FFFF0A00030CAE
:100DD000000001400A00011C00000E40050B440009
:100DE000390F5C010000034000000440DFDDDD0836
:100DF000730300002D498031086070BD10B5FFF706
:100E00005EFDFFF7C7FD00F031FB2A4C284860610A
:100E10000321081FFFF7A0FD0020A061072020612B
:100E2000FFF74BFFFFF746FEFFF700FFFFF7F8FE67
:100E3000FFF721FFFFF70DFEFFF73DFD10BD1E4937
:100E4000002008601D4908601D4908601D48418850
:100E50001022914341807047FFF7D0FFFFF7EFFF6B
:100E600000F0D2FA184900200862104A403250615E
:100E700016480168830399430160144920310C68C6
:100E80009C430C60046843039C43046008689843D7
:100E90000860FF20D063906300F078F8FCE7C1069B
:100EA000C90E012088400A490860704700000440CC
:100EB000FEAF010000E000E0440200203800002006
:100EC0002800002090020020404200500000014015
:100ED00000E100E070B5054600200246434E0BE0FD
:100EE000040AD3070BD0531EEB5C00025C40630086
:100EF000F35A584080B2521C8A42F1D370BD531C41
:100F0000F2E710B5394CC0B2183C207014280DD24D
:100F100037494000085A6080364980B20862022191
:100F2000A01CFFF7D7FFA080002010BD0020A080EC
:100F3000401E10BD00B501884A04520C2C49130014
:100F400000F01EFB082105050E1114171A210A884E
:100F5000807852085200C007C00F02430A8010E098
:100F6000408808810DE0408848810AE040888881F7
:100F700007E04088088204E0428880880004101856
:100F80004861002000BD0020C04300BD30B51848B6
:100F90004188C90625D54188102291434180134DCF
:100FA0001549083D2888AC1A884212D0C10B02D0DE
:100FB000FFF7A7FF0BE00D4804210838FFF78AFF71
:100FC000A988884208D109480838FFF7B3FF0028EC
:100FD00008D0E068401CE060064801680122114327
:100FE000016030BDA068401CA060F5E7440000200F
:100FF0009002002000000340FFFF000010B5B94937
:1010000088688860B84A01201070B8484088800716
:1010100019D5B44A203210684B0398431060002061
:10102000C0438862C86AB24CA030A042C86A02D3EA
:10103000B04C001900E0A0304862AF4900200870B1
:1010400010681843106010BD30B5AC4A1168884272
:1010500002D91168411A03E01368A549C91A091891
:101060000C46A74BFF3CA74DF63C9960AC4221D201
:1010700010609E48428808242243428042885207DA
:1010800016D582695118490881618069954A4008DE
:10109000D860D368FF210531884201D9012100E0E1
:1010A0000021CB4202D0FF38053800E032205060EA
:1010B000012030BD002030BDF0B500208949C0437B
:1010C00088628D480178874D01277F0702268E4C64
:1010D0002035002914D08D48806BA1680006C00F10
:1010E0004907C90F88420AD1E868FFF7ADFF012818
:1010F00005D12068B04320602868B8432860F0BD5F
:101100002968B943296001210170A0680843A060E3
:10111000206830432060F0BD7B4881680122114384
:10112000816075480078012812D16E49C86A704AFA
:10113000C8309042C86A03D36E4A2832801800E053
:10114000C8304862674820300168020611430160D8
:101150007047F8B56E4E306B694C4007400F206108
:10116000C1071DD0716ACA07604908D0326892056C
:10117000920D8A84716A090A090280310AE0726A52
:10118000120608D532689205920D4A84716A090ADE
:101190000902491C7162316A0122D2021143316293
:1011A000504D800700272035002818DA594807627B
:1011B00056494F614B4803688203934303602B6891
:1011C00093432B6003684203934303602868904372
:1011D0002860FF20C8638863072000F0BEF8207CE9
:1011E000400729D54C4800686061A169401A0A2867
:1011F0001FD26088322802D2401C60801AE0454825
:10120000076242494F613748026883039A4302608C
:101210002A689A432A60036842039343036028685C
:1012200090432860FF20C8638863052000F095F88C
:1012300000E067806069A061306B2169C008C00070
:1012400008433063F8BDF0B5344988680122800650
:10125000002838DA08692A4C80B2244EA0807388AE
:10126000DB0630D427782E4D3B0000F089F90504C9
:10127000191B210428002B4B984204D10868104305
:10128000086000200AE0C30B2880086803D01043E0
:10129000086022701AE0104308600220207015E0F8
:1012A000688006E00B6813430B6068800320F5E755
:1012B000A88070881022104370800420EEE71A483E
:1012C00003685B1C0360086810430860486C0122D7
:1012D000120410434864F0BD0F480168491D0160C5
:1012E00070470000000001400A000020900200202A
:1012F000FFFFFF00A10000FF2400002020000020CD
:10130000480200201B25000000000D404000044062
:1013100000000E404042005000000020000003404A
:101320003C000020FFFF00003800002032490A681E
:1013300000E000BF0B689B1A8342FAD370472F4925
:10134000002088607047002806D00121401E81409F
:101350002A4882688A43826070472849002806D05C
:101360000122401E8240886802438A607047002044
:1013700088607047214908208A68401EC0B2114623
:10138000C14002D0401CC0B270470028F5D1704760
:10139000F8B500271A4C0546082810D00126002D64
:1013A0000FD015480068401A7D21090100F090F81F
:1013B0000846144AA9005158814202D903E0276324
:1013C000F8BD2663F8BDFF21913100F081F8C829EE
:1013D000F7D2F4E710B5FFF7CDFF084A1178814244
:1013E00004D0054910700968516002E0002802D05D
:1013F0005168FFF7CDFF10BD0000002064020020FF
:1014000080420050B8150000F8B5FFF798FF114F63
:101410000F48B8621048F862104E00240020A50062
:10142000715908603220FFF781FF7159012008606F
:101430000B480068002801D000F072F8641CE4B288
:10144000062CEBD30748B8620748F862F8BD0000E5
:10145000050B050000000E40390F890170020020C5
:101460006C020020050B4400390F5C0110B50D4AD9
:1014700010694107490F11D0032911D00A48916919
:101480000907090F491C00F023F8084C084920609F
:101490004A10801800F01CF8606010BD0548EEE7A7
:1014A0000548ECE70002005000805101880200204E
:1014B00040420F00001BB700102700000348004700
:1014C000FEE7FEE7FEE7FEE7FEE7FEE7C1000000FD
:1014D00030B50B46014600202022012409E00D46CC
:1014E000D5409D4205D31D469540491B2546954054
:1014F00040191546521E002DF1DC30BD064C012569
:10150000064E05E0E36807CC2B430C3C98471034AB
:10151000B442F7D3FEF7D8FDD8150000F815000047
:1015200030B5124800220262114B5A61114801681D
:101530008403A14301600F4920310D68A5430D606C
:1015400005684403A54305600868A0430860FF20C0
:10155000D863986308480188490849000180418898
:101560004908490041800548027030BD40420050A2
:1015700040000440000001409002002004000020D0
:1015800030B47446641E2578641CAB4200D21D46FC
:10159000635D5B00E31830BC184702E008C8121F07
:1015A00008C1002AFAD170477047002001E001C14C
:1015B000121F002AFBD1704790010000900100002B
:1015C000200300002003000020030000200300008F
:1015D000B004000000000000F8150000000000202A
:1015E000900200009A150000881800009002002068
:1015F00028020000AA150000000000000000000002
:1016000000000000000000000000000000000000DA
:1016100000000000000000000000000000000000CA
:1016200000000000000000000000000000000000BA
:101630000000000000000000000000000000058025
:101640000F800A001B801E001400118033803600BA
:101650003C00398028002D802780220063806600AE
:101660006C00698078007D80778072005000558022
:101670005F805A004B804E0044004180C380C6000A
:10168000CC00C980D800DD80D780D200F000F58082
:10169000FF80FA00EB80EE00E400E180A000A5806E
:1016A000AF80AA00BB80BE00B400B18093809600DA
:1016B0009C00998088008D808780820083818601CC
:1016C0008C01898198019D8197819201B001B5813A
:1016D000BF81BA01AB81AE01A401A181E001E58126
:1016E000EF81EA01FB81FE01F401F181D381D60192
:1016F000DC01D981C801CD81C781C201400145818A
:101700004F814A015B815E015401518173817601F1
:101710007C01798168016D816781620123812601E5
:101720002C01298138013D81378132011001158159
:101730001F811A010B810E0104010181038306033D
:101740000C03098318031D831783120330033583A9
:101750003F833A032B832E03240321836003658395
:101760006F836A037B837E03740371835383560301
:101770005C03598348034D8347834203C003C583F9
:10178000CF83CA03DB83DE03D403D183F383F60361
:10179000FC03F983E803ED83E783E203A383A60355
:1017A000AC03A983B803BD83B783B20390039583C9
:1017B0009F839A038B838E038403818380028582B7
:1017C0008F828A029B829E0294029182B382B60229
:1017D000BC02B982A802AD82A782A202E382E6021D
:1017E000EC02E982F802FD82F782F202D002D58291
:1017F000DF82DA02CB82CE02C402C1824382460279
:101800004C02498258025D825782520270027582F0
:101810007F827A026B826E026402618220022582DC
:101820002F822A023B823E02340231821382160248
:101830001C02198208020D820782020200000000C9
:101840000000000000000000000000000000000098
:101850000000000000000000000000000000000088
:1018600000000000000000004842005050420050BC
:10187000584200504C420050544200501042005018
:08188000008051011600000078
:04000005000014BD26
:00000001FF
