:020000040000FA
:10000000C8020020F9170000FD170000FF170000CC
:1000100000000000000000000000000000000000E0
:1000200000000000000000000000000001180000B7
:100030000000000000000000031800001B16000074
:100040000718000007180000071800000718000034
:100050000718000007180000071800000718000024
:1000600059130000151400000718000007180000BD
:100070000718000007180000A3150000071800006B
:1000800007180000071800000718000007180000F4
:1000900007180000071800000718000007180000E4
:1000A000071800007514000007180000071800006A
:1000B00007180000AF140000071800000718000020
:1000C0000348854601F0BCFC00480047650E00006F
:1000D000C8020020304800210162416A090A090271
:1000E00019434162704705200007C26801210907D2
:1000F0000A43C260C2688A43C260704710B526488E
:10010000036AFF247134A34303628315002909D0D5
:10011000446B240A240214434463026A19430A43C9
:10012000026210BD016A1A431143016210BD1A48F0
:10013000016AFF2271329143016270471648816B58
:1001400009090901114381637047CB071248022254
:10015000002B02D0036A134303628B0702D5836A24
:1001600013438362490702D5C16A1143C1627047D4
:10017000CB0709480222002B02D0036A9343036293
:100180008B0702D5836A93438362490702D5C16A0C
:100190009143C1627047000000000E405C488168D6
:1001A000402291438160704752010A4310210A4363
:1001B00057494A628A6840231A438A60CA690C23F5
:1001C0009A430243CA61704752490420086150486B
:1001D0000168C0221143016030BF70474C4801687C
:1001E000C0221143016030BF704749480068C00712
:1001F00000D04948704746480068800702D5012072
:10020000C00370470020704710B501F0CDFA434895
:10021000006810BD10B501F0C7FA4048006810BD75
:100220003B4A1369DB08DB00034313619069000953
:10023000000108439061704770B5430E1B070ED054
:100240004300334C9B0F9B0010341B191C68C500E6
:100250002D0FC601F60EB540AC430C431C60830A5B
:100260001906090E0DD00103294C890F8900183495
:1002700009190C688005DBB2C00E83409C4314430F
:100280000C6070BD224A1169382399430143116102
:1002900070471F490A6802430A6070471C490A6890
:1002A00082430A607047C10F8A00194951188A6851
:1002B000C306DB0E0120984002438A607047C10FDD
:1002C0008A00134951188A68C306DB0E0120984042
:1002D00082438A607047124909684843114948615E
:1002E00000208861052008610869C003FCD57047BB
:1002F00010B51B2104460903054B03E00A46491EBD
:10030000002A03DDDA6820469043F7D110BD0000D3
:100310000002005000ED00E0001BB700900000203C
:100320009400002000E000E0F0B5002301273C46E7
:100330009C400C4208D005685C000326A640B543EB
:100340001646A640354305605B1C082BEFD3F0BD75
:1003500010B58369140E8C4023438361C369120274
:10036000120A8A401343C36110BD826901238B4086
:100370009A438261C269024B8B409A43C2617047C3
:1003800001000100FFB5BE4883B00E46006811466B
:10039000019001F03BFA0124BA4DFF27009021465D
:1003A000009801F033FA01210906884212D8411958
:1003B00009020F0E032F00D20227394601F026FA58
:1003C00001210904884205D8012801D085B205E041
:1003D000012503E06006040E112CE0D33946614389
:1003E0006943019801F012FA7F1E6D1EFAB2ADB298
:1003F0000090012C2AD0022C2AD0042C2AD0082CC0
:100400002AD00320A04C23687108C900FF278F4021
:10041000BB438A40134323606168B6000722B240A1
:100420009143B04001436160A0680821B140084396
:10043000A0600698691C4843642101F0E7F931196E
:10044000401E4862CD60009807B0F0BD0420D9E797
:100450000020D7E70120D5E70220D3E730B50022FE
:1004600010460124234683400B4203D085002346D7
:10047000AB401A43401C0628F4D3834988681043D4
:10048000886030BD30B500207F4C012503462A46E8
:1004900082400A4202D082001219D360401C062812
:1004A000F5D330BD30B500221046012423468340E9
:1004B0000B4203D085002346AB401A43401C06285C
:1004C000F4D3714988689043886030BD10B56E4C94
:1004D0000F234034C800042906D2A16A83409943FF
:1004E00082401143A16210BD2038E16A83409943E4
:1004F00082401143E16210BD634AC80040320F23BD
:10050000042904D2916A834099439162704720384C
:100510008340D06A9843D06270475B4BC800403339
:10052000042904D2196B82401143196370472038A3
:100530008240586B02435A6370475348CA004030A8
:10054000042901D2006B01E0406B203AD040000743
:10055000000F704710064C4918434031086270473D
:100560004949802040310862704747484030C2699D
:100570000A43C261704744484030C2698A43C2613D
:10058000704730B5404C48084034636AC100FF25CD
:100590008D40AB438A401343636223039A689901F9
:1005A00081400A439A6030BD480837498A688B0108
:1005B00083409A438A6070473348403042698315CC
:1005C0008B401A43426170472F484030426983157F
:1005D0008B409A43426170472B48403082698315B3
:1005E0008B409A4382617047274840308069FF22E0
:1005F00001328A40104000D001207047224840302C
:100600004169012212041143416170471E48403084
:100610004169012212049143416170471A484030F8
:1006200081617047184840308069084000D001203F
:10063000704710B5144C4034606901235B04984343
:1006400001238B4018431043606110BD0E484030B9
:10065000426901238B409A43426170470A48403007
:10066000826901238B401A438261704706484030FB
:10067000806901228A40104000D0012070470000AC
:1006800090000020FFFF000000000440F8B5044681
:100690007B48069F85680126360335438560202BFD
:1006A00000D10023D800084310432060FFF7ACFDC1
:1006B000744D06462846002F15D03946304601F0C5
:1006C000A5F8401C4008401EA84200D928466E49A3
:1006D0004968090C09040143616041003046891CE6
:1006E00001F094F8F8BD0021F6E705200007C26884
:1006F000012109030A43C260C2688A43C26060489C
:1007000082688A4382607047016C01221143016450
:100710007047016C0222114301647047816808220E
:1007200091438160704783680B4308210A43134358
:1007300083607047F8B50F460446FFF765FD514DDD
:1007400006462846002F15D03946304601F05EF89F
:10075000401C4008401EA84200D928464A49496822
:10076000090C09040143616041003046891C01F015
:100770004DF8F8BD0021F6E710B5036C33242406CC
:10078000A34309070B4311060B43036401680122CD
:1007900052051143016010BD0168012252059143C9
:1007A0000160704710B50446FFF72EFD61684008F0
:1007B000C9B2491C01F02AF810BDCA0704D002686A
:1007C00001235B041A4302608A0704D5C26B01232C
:1007D0001B041A43C2634A0704D5C26B01239B0260
:1007E0001A43C2630A0703D5026C08231A43026442
:1007F000CA0603D5026C04231A43026412228A43F8
:1008000003D1026C40231A43026414228A4304D1A8
:10081000016C01225205114301647047CA0704D0DC
:10082000026801235B049A4302608A0704D5C26B05
:1008300001231B049A43C2634A0704D5C26B0123F8
:100840009B029A43C2630A0703D5026C08239A43AA
:100850000264CA0603D5026C04239A43026412227E
:100860008A4303D1026C40239A43026414228A43D0
:1008700004D1016C012252059143016470470000CC
:1008800000020050FFFF000000000340052109079F
:100890004A6802434A6070470520000780694006A5
:1008A000C00F70470520000740687047294800685E
:1008B000C007C00F7047274900200860704710B577
:1008C000592116232348882202E001600360026058
:1008D0000468012CF9D110BD05200007006870479D
:1008E00005200007816801221143816070470520BF
:1008F000000781680222114381607047010E8A005F
:100900000521090751188B680122824013438B602F
:10091000886890438860704710B505221207936974
:1009200001242343936193690824A3430343936100
:100930009069062398430843906110BD0520000785
:1009400081694908490081618169062211438161F9
:1009500070470000000100508307FF22DB0E9A4021
:100960008907090E994000280BDA0007000F0838A4
:100970008308FF489B001818C36993430B43C36166
:1009800070478308FB489B001818036893430B4388
:1009900003607047F8B5F84C2068042108432060D4
:1009A0001020FFF7A5FC00210720FFF739FC3820B5
:1009B000FFF768FCF14D012202212846FFF73CFCBD
:1009C000EF4E372292040C213046FFF735FCED4FF5
:1009D000012251073846FFF72FFC0122D107EA48D0
:1009E000FFF72AFC01222021E848FFF725FC00221E
:1009F0002104E748FFF720FC01225102E548FFF7F8
:100A00001BFC01225103E448FFF716FC606910212A
:100A1000084360612846FFF746FCDE48FFF743FCC9
:100A2000DD48FFF740FCDD48FFF73DFCD848FFF705
:100A30003AFC3846FFF737FCD348FFF734FCD3487D
:100A4000FFF731FC3046FFF72EFCD548FFF72BFCB3
:100A5000F8BD10B5082000F02CFA092000F029FAA2
:100A60000E2000F026FA192000F023FA022000F0F0
:100A700020FA1D2000F01DFA01210820FFF76CFF6D
:100A800001210920FFF768FF03210E20FFF764FF13
:100A900002211920FFF760FF00210220FFF75CFF11
:100AA00003211D20FFF758FF01220421BD48FFF755
:100AB0004FFC10BDF8B5BB4C0122803410212046FC
:100AC000FFF732FCB74D012211462846FFF72CFCF8
:100AD000B548002707623A4604212846FFF724FC60
:100AE000B04801227C214038FFF71EFCAD4E0122A8
:100AF000C03E10213046FFF717FC0022A2213046ED
:100B0000FFF712FC012240213046FFF70DFC0122C5
:100B100011463046FFF708FCA24E0022803E042119
:100B20003046FFF701FC012240212846FFF7FCFB7D
:100B3000012211462046FFF7F7FB9B484030076231
:100B400060680121C9040843606000220821204632
:100B5000FFF7EAFB68680121490408436860002246
:100B600002212846FFF7E0FB706839210904084399
:100B70007060002239213046FFF7D6FBA005016BDB
:100B80008A4A11400163016BFF2202321143016363
:100B9000416B874C21404163416B01239B02194308
:100BA0004163016B834B1943016383494B68834D58
:100BB0002B404B604B6808252B434B60C36B651083
:100BC0002B40C363C36B55002B43C363C36B7C4D86
:100BD0002B40C363C36B95012B43C3634B689343A3
:100BE0004B604A684A60416B764B19404163426BE7
:100BF000A9100A434263826B734D2A4082631F220D
:100C000092028263026B1A400263026B0A43026320
:100C1000C16B2140C163C16B04221143C163F8BDA4
:100C20006B486A4901606B490162704710B56A4CB4
:100C3000052200212046FFF781FA206A012108439E
:100C400020626648A0626648E0622046FFF77DFAAF
:100C500002212046FFF779FA04212046FFF775FAB2
:100C6000606A000A000280306062206A0121C902C5
:100C70000843206210BD38B55A4C2046FFF735FDB9
:100C80002046FFF741FD2046FFF743FD00200422E8
:100C90000090202311042046FFF7F8FC206821155E
:100CA00088432060A06810218843A060A0680421C8
:100CB0008843A0600A462046FFF75EFD01212046DA
:100CC000FFF77BFD38BD70B5474C3F212046FFF74D
:100CD000D9FB2068000A0002401C20602068FF2128
:100CE00009028843FF3001302060206809028843F0
:100CF00001210904401820606068C008C000001D80
:100D000060606068702188434030606060680901FD
:100D100088432115401860606068072109038843F3
:100D20000121890340186060606807210904884335
:100D30000121890440186060606807210905884323
:100D40002101401860602948A06000256562A56205
:100D5000E56225636563A5632548E0602061606105
:100D6000A061E06120623F212046FFF7FEFB41E0E9
:100D700000ED00E000E400E000020050E0030C267B
:100D80001CFE2326F403CC27F503EC27F6034C6660
:100D9000103D8027E2038C2EE303CC2EEC034C2283
:100DA000FE03FC61C040005040420050FEFEFFFECA
:100DB000FBFBFFFF02E0000040000050F7F7FFFFE1
:100DC000BFBFFFFFEFEFFFFF8383FFFF0A00030CAE
:100DD000000001400A00011C00000E40050B440009
:100DE000390F5C010000034000000440DFDDDD0836
:100DF0007303000032484030456100F091FE3049F5
:100E0000A0158031086070BD10B5FFF758FDFFF7E1
:100E1000C1FD00F0C9FC2C4C2A4860610321081F69
:100E2000FFF79AFD0020A06107202061FFF74BFF2C
:100E3000FFF740FEFFF7FAFEFFF7F2FEFFF71BFF9A
:100E4000FFF707FEFFF737FD10BD204900200860BF
:100E50001F4908601F4908601F48418810229143BC
:100E600041807047FFF7D0FFFFF7EFFF00F06AFC0B
:100E70001A4900200862124A40325061184801683D
:100E8000830399430160164920310C689C430C6030
:100E9000046843039C430460086898430860FF208B
:100EA000D063906300F09AF800F0FCF900F030FC99
:100EB000F8E7C106C90E012088400A49086070475A
:100EC00000000440FEAF010000E000E04C00002004
:100ED00038000020280000209C00002040420050E4
:100EE0000000014000E100E00020704710B5B44C64
:100EF000A079012833D100F043FEB24988894A899C
:100F0000904217D02079052811D9002020718889B6
:100F10004A899042888901D2401C00E0401E8881A5
:100F20008A89A94882628A8902638A8982632079D0
:100F3000401C20716079052801D2401C00E000208F
:100F4000C0B260710988890702D480009F4902E01D
:100F50009E498000183108589B494031C86310BD34
:100F6000F8B59B480068964C964B6169401AD98940
:100F700088420BD9A07804280AD29449091F095C39
:100F8000D88800F0BBFEA078401CA0709148F8BD46
:100F9000914A002111628C4D403569618F490A6880
:100FA0008E03B2430A608D4A20321768B743176038
:100FB0000F684E03B7430F601168B1431160FF2102
:100FC000E963A96359884908490059807F49091F85
:100FD00008182038C07F60710120F8BDF8B5794C41
:100FE000A1897F48814203D87749896A814204D91F
:100FF00000F096FD062000F04EFB714D6188686997
:10100000734EC90713D0704940318B6B754A17680E
:10101000BB4203D0886B1060306808E03168081A62
:10102000502804D900F07CFD062000F034FB2A781B
:101030006D4800270121130000F043FE0705103121
:101040003F81A1B80F002288D20706D0006840086F
:1010500003D13068A8616F702970F8BD2288D2076B
:101060001AD00068400817D16F71AF706088FF22F6
:1010700052019043608030686861608808436080F6
:1010800060880223984360806288042082436280E3
:10109000514801622B70F8BD00F042FDF8BD218877
:1010A000C907F9D000684008F6D1FFF759FF0128B9
:1010B000F4D13068286103203FE02288D207EBD0CA
:1010C00000684008E8D130682089A0816069A0618B
:1010D00060880E46304360806879052801D2401C44
:1010E00000E00020C1B26971A08900F007FE3A4813
:1010F00006626879052801D2401C00E00020C0B2D9
:1011000068712188890702D48000304902E02F49A4
:101110008000183108582C494031C863A1692F4814
:101120004160016882031143016001684203114379
:1011300001602F812F71EF7004202870F8BD218885
:10114000C907A9D000684008A6D100F09BFCA0699F
:1011500026498842F2D860880821884360806088E8
:1011600002210843608022490A68052002430A6080
:101170001A4920310A6883071A430A60DDE721888B
:10118000C90789D00068400886D16088400701D52A
:101190000620D2E72889FF212D31884202D200F0B3
:1011A00071FCF8BD042000F076FAF8BD2188C9076B
:1011B00085D00068400885D1FFF798FEF8BD000093
:1011C000040000209C00002000000440341D0000AA
:1011D00000000020FFFF00004042005000000140DE
:1011E000DD02000098000020740000203F0600008F
:1011F00000000D4070B5524DFF23EE1D1A46F93622
:1012000004E0047854402A5D5A40335D0C46491E80
:1012100089B2002CF5D11802104370BD10B50188B9
:101220004904490C12290ED2464A4900515A464CEB
:101230002162008801214004000C8018FFF7DAFFCA
:101240002062002010BD0020C04310BD00B5018801
:101250004A04520C3B49130000F033FD08210505F8
:101260000E1114171A210A88807852085200C007FC
:10127000C00F02430A8010E04088C8800DE040881B
:1012800008810AE04088488107E04088C88104E07E
:1012900042888088101800044861002000BD0020AA
:1012A000C04300BD70B527494888284CC00628D5E2
:1012B000208B2082628B62824A8810239A434A8064
:1012C000E518C00B01D0012100E003211F481030B8
:1012D000FFF790FF2988CA0B01D06A8800E0EA88EE
:1012E00090420BD1A068401CA060C80B184802D0E7
:1012F000FFF794FF05E0FFF7A9FF02E0E068401C5C
:10130000E060144801686268891AFF22F532914250
:101310000CD9006860602168A068884204D100F0A0
:10132000FFFB022000F0B7F9A0682060E068062803
:1013300004D900F0F5FB022000F0ADF970BD00000B
:10134000641D00009C000020000003402C000020D1
:101350003C0000200000002010B5B2498868886079
:10136000B14A01201070B1484088800719D5AD4AB4
:10137000203210684B03984310600020C0438862FD
:10138000C86AAB4CA030A042C86A02D3A94C00196D
:1013900000E0A0304862A849002008701068184397
:1013A000106010BD30B5A54A1168884202D9116895
:1013B000411A03E013689E49C91A09180C46A04B4C
:1013C000FF3CA04DF63C5960AC4221D210609748DA
:1013D00042880824224342804288520716D58269F7
:1013E00051184908816180698E4A40089860D36825
:1013F000FF210531884201D9012100E00021CB42C3
:1014000002D0FF38053800E032205060012030BDA6
:10141000002030BDF0B500208249C0438862864874
:101420000178804D01277F070226874C203500294F
:1014300014D08648806BA1680006C00F4907C90F09
:1014400088420AD1E868FFF7ADFF012805D120687E
:10145000B04320602868B8432860F0BD2968B943CC
:10146000296001210170A0680843A0602068304312
:101470002060F0BD744881680122114381606E488C
:101480000078012812D16749C86A694AC830904279
:10149000C86A03D3674A2832801800E0C83048621F
:1014A0006048203001680206114301607047F8B5BA
:1014B000674E306B624C4007400FE060C1071DD0A3
:1014C000716ACA07594908D032689205920D8A8418
:1014D000716A090A090280310AE0726A120608D5A7
:1014E00032689205920D4A84716A090A0902491C00
:1014F0007162316A0122D20211433162494D800783
:1015000000272035002818DA524807624F494F61FA
:10151000444803688203934303602B6893432B6022
:101520000368420393430360286890432860FF20C8
:10153000C8638863072000F0AEF8207B400729D5F8
:101540004548006820616169401A0A281FD2208836
:10155000322802D2401C20801AE03E4807623B49F4
:101560004F613048026883039A4302602A689A43B5
:101570002A6003684203934303602868904328600D
:10158000FF20C8638863052000F085F800E027800D
:1015900020696061306BE168C008C00008433063B7
:1015A000F8BDF0B52D4E3068C00327D5706C012111
:1015B000090408437064B068294982060868401C21
:1015C000002A28DA194D6A88D20624D4726C1C4B82
:1015D0001204120F234C1027012A05D0726C12043A
:1015E000120F022A0BD016E032699A61130C238085
:1015F0006280DA0B0FD0688838436880F0BD3269AA
:10160000130C2380628032690D4EB261160CA680E5
:10161000E2801A04EFD50860F0BD0F480168491D4B
:1016200001607047000001400A0000209C0000207B
:10163000FFFFFF00A10000FF240000202000002089
:10164000500000201B25000000000D404000044019
:1016500000000E4040420050000000200000034007
:10166000380000204400002032490A6800E000BF32
:101670000B689B1A8342FAD370472F490020886079
:101680007047002806D00121401E81402A48826808
:101690008A43826070472849002806D00122401EF4
:1016A0008240886802438A607047002088607047E3
:1016B000214908208A68401EC0B21146C14002D0AC
:1016C000401CC0B270470028F5D17047F8B500271C
:1016D0001A4C0546082810D00126002D0FD01548B9
:1016E0000068401A7D21090100F090F80846144A6C
:1016F000A9005158814202D903E02763F8BD26634F
:10170000F8BDFF21913100F081F8C829F7D2F4E744
:1017100010B5FFF7CDFF084A1178814204D0054982
:1017200010700968516002E0002802D05168FFF78C
:10173000CDFF10BD000000206C0000208042005052
:10174000641F0000F8B5FFF798FF114F0F48B8620B
:101750001048F862104E00240020A500715908605E
:101760003220FFF781FF7159012008600B480068A3
:10177000002801D000F0D4F9641CE4B2062CEBD3AD
:101780000748B8620748F862F8BD0000050B05007D
:1017900000000E40390F89017800002074000020FD
:1017A000050B4400390F5C0110B50D4A1069410763
:1017B000490F11D0032911D00A4891690907090F6F
:1017C000491C00F023F8084C084920604A10801892
:1017D00000F01CF8606010BD0548EEE70548ECE736
:1017E00000020050008051019000002040420F0094
:1017F000001BB7001027000003480047FEE7FEE784
:10180000FEE7FEE7FEE7FEE7C100000030B50B464D
:10181000014600202022012409E00D46D5409D42CA
:1018200005D31D469540491B254695404019154650
:10183000521E002DF1DC30BDF0B51FB488B00B99FD
:101840000998002448400999C00F490049080991A6
:10185000C0070B990090490049080B910999089815
:10186000A64608431CD00B990A98084318D009983B
:1018700001244000420D4800410D09982405000351
:10188000000B204309900B980003000B20430B90A2
:1018900050181C494018002201901446104605E0DB
:1018A000002001460DB0F0BD032801DA034600E038
:1018B00003239C46C11A0AAE0AE05F0008ADED5B47
:1018C0004F00F75B7D430027AA187C41491C5B1E33
:1018D0006145F2DD410004AB5A522104120C0A4367
:1018E000240C401C0828DFDB019802900099704608
:1018F00001910090059B049A0799069800F04EF814
:10190000D0E700000DFCFFFF0EB505490291002154
:1019100000910A460B46019100F040F803B000BD6B
:10192000330400004A0009030123090B1B05194376
:10193000094B10B5520D9A4201DA002010BD064B3A
:1019400034339A4203DC9A1A00F00AF810BD0349B6
:101950005118884010BD0000FF030000CDFBFFFFC1
:1019600010B5202A04DB0846203AD040002110BDE3
:101970000B46D340D0402024A21A91400843194678
:1019800010BD10B5002B08DA0024401C61419218EC
:101990005B411A4301D14008400010BDF0B51FB4AF
:1019A00082B005460C0003D0084600F073F902E04F
:1019B00000F070F92030024600902146284600F0E1
:1019C00051F8049B059A04460F46184311430843F7
:1019D00014D0184610431BD0009840210A1A18460C
:1019E0000599FFF7BDFF05460E46009A0599049834
:1019F00000F038F8084305D0012004E020463946BD
:101A000007B0F0BD0020C11705430E432C433743F8
:101A100000990E986305401A7905E40A00220C43E8
:101A2000FD0A0A3002D500200146E9E70105101938
:101A300069410C9C0D9D00196941FFF7A2FFDFE78A
:101A4000064C0125064E05E0E36807CC2B430C3C11
:101A500098471034B442F7D3FEF736FB841F0000DA
:101A6000A41F000010B5202A04DB0146203A914053
:101A7000002010BD914020239C1A0346E3401943E7
:101A8000904010BD70B51E4DA879012836D100F0E8
:101A900077F8E8781B4C092816D90020E870A0696F
:101AA000194EB042A06908D3FFF72EFF174A184B12
:101AB000FFF7C2FEFFF736FF80B2A061A069B04217
:101AC00002D82889401C2881E878401CE870A06969
:101AD000104948606879052801D2401C00E00020C8
:101AE000C0B268712188890702D480000A4902E0E7
:101AF00009498000183108580849C86370BD0000C2
:101B0000040000209C000020E70300005C8FC2F569
:101B1000285CEF3F00000140341D000040000440FD
:101B200030B5124800220262114B5A611148016817
:101B30008403A14301600F4920310D68A5430D6066
:101B400005684403A54305600868A0430860FF20BA
:101B5000D863986308480188490849000180418892
:101B60004908490041800548027030BD404200509C
:101B700040000440000001409C00002004000020C0
:101B8000F8B53D4E00253D4CB571E069401CE06163
:101B9000608880075DD56088394F000714D560885C
:101BA000B8436080A088C0B2042804D960880421AA
:101BB000084360804DE0A088A188401CC0B2090A9B
:101BC00009020143A18044E0A088000A0002A0802D
:101BD0002C48C168A26992089142C168A26902D9E1
:101BE0009208891A03E0284B92089A1A8918F16121
:101BF0006188C904090E0C2921D96188490728D5B3
:101C0000618804229143618020490D62204A556118
:101C10001C4920390D688B039D430D6005689D4369
:101C200005600D684B039D430D6001689943016099
:101C3000FF20D06390630620FFF72DFD09E0608848
:101C40006188C004000E401C0006C00CB94301436B
:101C500061806088400704D5A069410009482038A8
:101C60004160608808218843608008484030016AEC
:101C7000012251400162F8BD040000209C000020B8
:101C8000E01F000020000140FFFFFF004042005025
:101C9000400004402021020C01D010211046020A0D
:101CA00001D010460839020901D01046091F8208E8
:101CB00001D01046891E420801D0881E7047081ABC
:101CC000704730B47446641E2578641CAB4200D261
:101CD0001D46635D5B00E31830BC184702E008C88E
:101CE000121F08C1002AFAD170477047002001E096
:101CF00001C1121F002AFBD170470000094A9062FF
:101D0000106390630848008882078800002A01DB7E
:101D1000064901E0054918310858024940318863F5
:101D200070470000000004409C000020341D0000AB
:101D30000001020139020040AD0200702708005086
:101D4000B60800401E2000709B200050B9020040E1
:101D50001B2000509E20007036080040A70800504D
:101D60002D02007000C1814001C0804101C080414E
:101D700000C1814001C0804100C1814000C181405B
:101D800001C0804101C0804100C1814000C181404B
:101D900001C0804100C1814001C0804101C080413B
:101DA00000C1814001C0804100C1814000C181402B
:101DB00001C0804100C1814001C0804101C080411B
:101DC00000C1814000C1814001C0804101C080410B
:101DD00000C1814001C0804100C1814000C18140FB
:101DE00001C0804101C0804100C1814000C18140EB
:101DF00001C0804100C1814001C0804101C08041DB
:101E000000C1814000C1814001C0804101C08041CA
:101E100000C1814001C0804100C1814000C18140BA
:101E200001C0804100C1814001C0804101C08041AA
:101E300000C1814001C0804100C1814000C181409A
:101E400001C0804101C0804100C1814000C181408A
:101E500001C0804100C1814001C0804101C080417A
:101E600000C1814000C0C101C30302C2C60607C74A
:101E700005C5C404CC0C0DCD0FCFCE0E0ACACB0BBA
:101E8000C90908C8D81819D91BDBDA1A1EDEDF1FEA
:101E9000DD1D1CDC14D4D515D71716D6D21213D3DA
:101EA00011D1D010F03031F133F3F23236F6F7378A
:101EB000F53534F43CFCFD3DFF3F3EFEFA3A3BFB7A
:101EC00039F9F83828E8E929EB2B2AEAEE2E2FEF2A
:101ED0002DEDEC2CE42425E527E7E62622E2E3239A
:101EE000E12120E0A06061A163A3A26266A6A767CA
:101EF000A56564A46CACAD6DAF6F6EAEAA6A6BAB3A
:101F000069A9A86878B8B979BB7B7ABABE7E7FBF69
:101F10007DBDBC7CB47475B577B7B67672B2B37359
:101F2000B17170B050909151935352929656579709
:101F3000559594549C5C5D9D5F9F9E5E5A9A9B5BF9
:101F400099595898884849894B8B8A4A4E8E8F4FA9
:101F50008D4D4C8C44848545874746868242438319
:101F600041818040900100009001000020030000AA
:101F7000200300002003000020030000B004000044
:101F800000000000A41F0000000000209C000000D2
:101F9000DC1C0000402000009C0000202C020000FF
:101FA000EC1C000000000000000000000000000029
:101FB0000000000000000000000000000000000021
:101FC0000000000000000000000000000000000011
:101FD0000000000000000000000000000000000001
:101FE00000000000000000000000000000000000F1
:101FF00000000000000000000000000000000000E1
:1020000000000000000000000000000000000000D0
:1020100000000000000000000000000048420050E6
:1020200050420050584200504C4200505442005020
:102030001042005000805101160000000000000016
:04000005000017F9E7
:00000001FF
