:020000040000FA
:10000000B8040020FD15000001160000D500000016
:1000100000000000000000000000000000000000E0
:1000200000000000000000000000000005160000B5
:10003000000000000000000007160000AF0A0000EA
:100040000B1600000B1600000B1600000B1600002C
:100050000B1600000B1600000B1600000B1600001C
:100060003D080000F90800000B1600000B16000008
:100070000B1600000B160000870A00000B1600008C
:100080000B1600000B1600000B1600000B160000EC
:100090000B1600000B1600000B1600000B160000DC
:1000A0000B160000590900000B1600000B1600008B
:1000B0000B160000930900000B1600000B16000041
:1000C0000348854601F024FB00480047E505000091
:1000D000B804002004207146084202D0EFF30980E2
:1000E00001E0EFF308807146004A10471B1500003D
:1000F0008307FF22DB0E9A408907090E99400028EA
:1001000008DB8308FE489B001818036893430B43E1
:10011000036070470007000F08388308F9489B0008
:100120001818C36993430B43C3617047F8B5F64C85
:100130002068042108432060102000F0ABFE00215D
:10014000072000F01FFE382000F04EFEEF4D012288
:100150000221284600F022FEED4E372292040C21A7
:10016000304600F01BFEEB4F01225107384600F0ED
:1001700015FE0122D107E84800F010FE01222021DF
:10018000E64800F00BFE00222104E54800F006FEE0
:1001900001225102E34800F001FE01225103E2482E
:1001A00000F0FCFD6069102108436061284600F002
:1001B0004BFEDC4800F048FEDB4800F045FEDB4823
:1001C00000F042FED64800F03FFE384600F03CFE0C
:1001D000D14800F039FED14800F036FE304600F03C
:1001E00033FED34800F030FEF8BD10B5082000F013
:1001F0001BFA092000F018FA0E2000F015FA192059
:1002000000F012FA022000F00FFA1D2000F00CFAA4
:1002100001210820FFF76CFF01210920FFF768FF8B
:1002200003210E20FFF764FF02211920FFF760FF72
:1002300000210220FFF75CFF03211D20FFF758FF7C
:1002400001220421BB4800F057FE10BDF8B5B94C9F
:10025000012280341021204600F03AFEB54D0122E3
:100260001146284600F034FEB348002707623A469C
:100270000421284600F02CFEAE4801227C214038A3
:1002800000F026FEAB4E0122C03E1021304600F0A9
:100290001FFE0022A221304600F01AFE012240215A
:1002A000304600F015FE01221146304600F010FEE7
:1002B000A04E0022803E0421304600F009FE0122BB
:1002C0004021284600F004FE01221146204600F09D
:1002D000FFFD994840300762606860600022082195
:1002E000204600F0F5FD686868600022022128467B
:1002F00000F0EEFD7068706000223921304600F099
:10030000E7FDA005016B8D4A11400163016BFF23DE
:10031000023319430163416B894A11404163416BC8
:100320000122920211434163016B864A114301632A
:1003300085494A68854C22404A604A68082422431D
:100340004A60C26B824C2240C263C26B5C00224393
:10035000C263C26B7F4C2240C263C26B9C012243CA
:10036000C2634A689A434A604A684A60416B7A4B62
:1003700019404163426BA1100A434263826B774C80
:10038000224082631F2292028263026B1A40026340
:10039000026B0A430263C16B714A1140C163C16BB6
:1003A00004221143C163F8BD6F486E4901606F4973
:1003B0000162704710B56E4C05220021204600F006
:1003C0006FFC206A0121084320626A48A0626A48E3
:1003D000E062204600F06CFC0221204600F068FC40
:1003E0000421204600F064FC606A000A00028030AC
:1003F0006062206A0121C9020843206210BD38B53D
:100400005E4C204600F046FF00200422009010239E
:100410001104204600F012FF206821158843206057
:10042000A06810210843A060A06804218843A06050
:100430000121204600F095FF20680121084320603B
:1004400038BD70B54E4C3F21204600F0F7FD2068C6
:10045000000A0002401C20602068FF210902884336
:10046000FF3001302060206809028843012109041F
:10047000401820606068C008C000001D60606068AF
:10048000702188434030606060680901884321150D
:1004900040186060606807210903884301218903CF
:1004A00040186060606807210904884301218904BD
:1004B00040186060606807210905884321014018E1
:1004C00060603048A06000256562A562E562256332
:1004D0006563A5632C48E06020616061A061E06114
:1004E00020623F21204600F01CFE25484030456137
:1004F00001F030F92249A0158031086070BD00007C
:1005000000E400E000ED00E000020050E0030C26F3
:100510001CFE2326F403CC27F503EC27F6034C66D8
:10052000103D8027E2038C2EE303CC2EEC034C22FB
:10053000FE03FC61C040005040420050FEFEFFFE42
:10054000FBFBFFFF02E0000040000050F7F7FFFF59
:10055000FDFDFFFFBFBFFFFFEFEFFFFF8383FFFF47
:10056000FBFBFFFE0A00030C000001400A00011C17
:1005700000000E40050B4400390F5C0100000340F1
:1005800000000440DFDDDD087303000010B500F05B
:1005900054FFFFF7CBFD01F03BF8294C2748606181
:1005A0000321081FFFF7A4FD0020A06107202061A0
:1005B000FFF747FFFFF74AFEFFF7FCFEFFF7F4FEE9
:1005C000FFF71DFFFFF711FE00F033FF10BD1D48C0
:1005D0000021C16201631C4A11608188102291438D
:1005E00081807047FFF7D2FFFFF7F1FF00F0F0FACC
:1005F000164900200862164A5061164801688303B4
:1006000099430160134920310C689C430C600468D5
:1006100043039C430460086898430860FF20D0634C
:10062000906300F07EF8FCE7002805DBC106C90EE8
:10063000012088400849086070470000FEAF0100B3
:1006400000E000E084020020200000204042005032
:10065000400004400000014000E100E070B50546A4
:10066000002002466F4E0BE0040AD3070BD0531E46
:10067000EB5C00025C406300F35A584080B2521CAD
:100680008A42F1D370BD531CF2E710B5654CC0B27D
:10069000183C20701A280DD263494000085A608027
:1006A000624980B208620221A01CFFF7D7FFE080F8
:1006B000002010BD0020E080401E10BD00B5018864
:1006C0004A04520C5849130001F084F80928060620
:1006D0000F1215181B2028004A88807852085200F3
:1006E000C007C00F02434A8016E04088488113E0EB
:1006F0004088888110E04088C8810DE040884882A9
:100700000AE08A694088120C120403E08A69408872
:1007100092B2000402438A61002000BD0020C04361
:1007200000BDF8B5404DA888414C404EC00652D59A
:10073000A88810218843A8803069274680B2A0800D
:1007400061783C4A10370B0001F044F80504212A77
:100750002D123E00904206D0002804D03880C00BF5
:1007600004D0012011E00020306230E002200CE0D3
:10077000904202D1E088306206E0C10B01D038809F
:10078000F4E7286B401C2863002060701FE078802D
:100790003888FFF77AFF13E0E86A401CE86211E04E
:1007A00078800320F1E7B8801E4804210838FFF75D
:1007B00055FFB988884205D11A480838FFF77EFFEF
:1007C0000028E9D00420E0E7286B401C286331684A
:1007D00001200143316018480168E268891AFF224C
:1007E000F532914210D90068E060E86AA168884259
:1007F00008D100F0AFFF022000F093F9316801202A
:1008000001433160E86AA060286B062808D900F02F
:10081000A1FF022000F085F9316801200143316019
:10082000F8BD00003C0000208402002000000340CE
:1008300024000020FFFF00000000002010B59E49AA
:10084000886888609D4A012010709D4880888007D4
:1008500019D5994A203210684B0398431060002044
:10086000C0438862C86A974CA030A042C86A02D3CD
:10087000954C001900E0A0304862944900200870AF
:1008800010681843106010BD30B5914A1168884255
:1008900002D91168411A03E013688A49C91A091874
:1008A0000C468C4BFF3C8C4DF63C5960AC4221D23F
:1008B00010608348828808242243828082885207FD
:1008C00016D5C26951184908C161C0697A4A400801
:1008D0009860D368FF210531884201D9012100E0E9
:1008E0000021CB4202D0FF38053800E032205060B2
:1008F000012030BD002030BDF0B500206E49C0435E
:100900008862724801786C4D01277F070226734C7C
:100910002035002914D07248806BA1680006C00FF2
:100920004907C90F88420AD1E868FFF7ADFF0128DF
:1009300005D12068B04320602868B8432860F0BD26
:100940002968B943296001210170A0680843A060AB
:10095000206830432060F0BD604881680122114367
:1009600081605A480078012812D15349C86A554A13
:10097000C8309042C86A03D3534A2832801800E036
:10098000C83048624C4820300168020611430160BB
:100990007047F8B5534E306B4E4C4007400FE06047
:1009A000C1071DD0716ACA07454908D0326892054F
:1009B000920D0A85716A090A090280310AE0726A99
:1009C000120608D532689205920DCA84716A090A26
:1009D0000902491C7162316A0122D202114331625B
:1009E000354D800700272035002818DA3E48076279
:1009F0003B494F61304803688203934303602B688F
:100A000093432B6003684203934303602868904339
:100A10002860FF20C8638863072000F082F8207BED
:100A2000400729D53148006820616169401A0A28C9
:100A30001FD22088322802D2401C20801AE02A4887
:100A4000076227494F611C48026883039A4302608A
:100A50002A689A432A600368420393430360286824
:100A600090432860FF20C8638863052000F059F890
:100A700000E0278020696061306BE168C008C00039
:100A800008433063F8BD0120194900044860184844
:100A900040388168890605D50948818810221143AC
:100AA00081807047016801221143016070470F483F
:100AB0000168491D01607047000001400A000020E4
:100AC00084020020FFFFFF00A10000FF1C000020A7
:100AD000180000203C0200201B25000000000D40F3
:100AE0004000044000000E40404200500000002042
:100AF0004000034032490A6800E000BF0B689B1ABF
:100B00008342FAD370472F4900208860704700283D
:100B100006D00121401E81402A4882688A438260B3
:100B200070472849002806D00122401E824088686C
:100B300002438A607047002088607047214908207E
:100B40008A68401EC0B21146C14002D0401CC0B2EB
:100B500070470028F5D17047F8B500271A4C0546B4
:100B6000082810D00126002D0FD015480068401A23
:100B70007D21090100F074FD0846144AA90051586E
:100B8000814202D903E02763F8BD2663F8BDFF2147
:100B9000913100F065FDC829F7D2F4E710B5FFF7F1
:100BA000CDFF084A1178814204D0054910700968C8
:100BB000516002E0002802D05168FFF7CDFF10BD60
:100BC000000000205402002080420050E81A00007B
:100BD000F8B5FFF798FF114F0F48B8621048F86258
:100BE000104E00240020A500715908603220FFF744
:100BF00081FF7159012008600B480068002801D06E
:100C000000F0A8FD641CE4B2062CEBD30748B862E0
:100C10000748F862F8BD0000050B050000000E4013
:100C2000390F8901600200205C020020050B44009E
:100C3000390F5C01314800210162416A090A090249
:100C400019434162704705200007C2680121090766
:100C50000A43C260C2688A43C260704730B5274801
:100C6000036AFF247134A3430362831500290BD068
:100C7000224C403465682D0A2D0215436560026AD6
:100C800019430A43026230BD016A1A4311430162EB
:100C900030BD1A48016AFF227132914301627047E8
:100CA0001648403081680909090111438160704785
:100CB000CB0712480222002B02D0036A13430362BF
:100CC0008B0702D5836A13438362490702D5C16A41
:100CD0001143C1627047CB0708480222002B02D0A3
:100CE000036A934303628B0702D5836A934383624B
:100CF000490702D5C16A9143C162704700000E40A6
:100D00006D488168402291438160704752010A43D7
:100D100010210A4368494A628A6840231A438A605C
:100D2000CA690C239A430243CA617047634904208D
:100D3000086161480168C0221143016030BF7047FB
:100D40005D48016880229143016030BF70475A4876
:100D50000068C00700D05A487047574800688007AD
:100D600002D50120C00370470020704710B500F085
:100D70004FFC5448006810BD10B500F049FC5148C4
:100D8000006810BD4C4A1369DB08DB0003431361A4
:100D900090690009000108439061704770B5430EE7
:100DA0001B070ED04300444C9B0F9B0010341B19B3
:100DB0001C68C5002D0FC601F60EB540AC430C43B0
:100DC0001C60830A1906090E0DD001033A4C890FE5
:100DD0008900183409190C688005DBB2C00E834005
:100DE0009C4314430C6070BD334A11693823994306
:100DF00001431161704770B5334A00231361042425
:100E000008280FD01569A54315612B4D2C6938268C
:100E1000B44304432C61516193611069012108437B
:100E2000106170BD106920431061F4E7264900206D
:100E30000861704720490A6802430A6070471E49EA
:100E40000A6882430A607047C10F8A001A49511824
:100E50008A68C306DB0E0120984002438A6070470F
:100E6000C10F8A00144951188A68C306DB0E01209D
:100E7000984082438A607047144909684843124980
:100E8000486100228A61052008610869C003FCD519
:100E90000A61704710B51B2104460903064B05E0A3
:100EA0000A46491E002A01DC002010BDDA682046EF
:100EB0009043F5D1012010BD0002005000ED00E08C
:100EC000001BB7007C02002000E000E08002002050
:100ED000F0B5002301273C469C400C4208D0056831
:100EE0005C000326A640B5431646A6403543056080
:100EF0005B1C082BEFD3F0BD10B58369140E8C403A
:100F000023438361C3691202120A8A401343C361F7
:100F100010BD826901238B409A438261C269024BF2
:100F20008B409A43C261704701000100FFB5C04881
:100F300083B000681D461146019000F091FB012628
:100F4000BC4CFF2700903146009800F089FB01213E
:100F50000906884212D8011909020F0E032F00D288
:100F60000227394600F07CFB01210904884205D89C
:100F7000012801D084B205E0012403E07006060ECA
:100F8000112EE0D3394671436143019800F068FBAC
:100F90007F1E641EFBB2A4B20090012E30D0022E40
:100FA00030D0042E30D0082E30D00321A24A16684B
:100FB0000498FF274008C0008740BE4383401E437B
:100FC000166053680498072680008640B34381402A
:100FD0000B43536091680823490049088340194333
:100FE000916011464618002D12D0601C68436421A0
:100FF00000F036FB401E7062F460009807B0F0BD50
:101000000421D3E70021D1E70121CFE70221CDE779
:101010000020F0E730B5002210460124234683402B
:101020000B4203D085002346AB401A43401C0628E0
:10103000F4D3814988681043886030BD30B5002002
:101040007D4C012503462A4682400A4202D0820096
:101050001219D360401C0628F5D330BD30B50022EC
:1010600010460124234683400B4203D085002346CB
:10107000AB401A43401C0628F4D36F49886890435C
:10108000886030BD10B56C4C0F234034C800042973
:1010900006D2A16A8340994382401143A16210BDE8
:1010A0002038E16A8340994382401143E16210BDD8
:1010B000614AC80040320F23042904D2916A834058
:1010C00099439162704720388340D06A9843D06238
:1010D0007047594BC8004033042904D2196B824031
:1010E00011431963704720388240586B02435A639A
:1010F00070475148CA004030042901D2006B01E01A
:10110000406B203AD0400007000F704710064A4954
:1011100018434031086270474749802040310862D7
:10112000704745484030C2690A43C261704742482F
:101130004030C2698A43C261704730B53E4C4808AE
:101140004034636AC100FF258D40AB438A4013439E
:10115000636223039A68990181400A439A6030BD13
:10116000480835498A688B0183409A438A607047F2
:1011700031484030426983158B401A4342617047C1
:101180002D484030426983158B409A434261704735
:10119000FF20013088402849403188617047264847
:1011A00040308069FF2201328A40104000D0012087
:1011B00070472148403041690122120411434161C6
:1011C00070471D484030416901221204914341613A
:1011D0007047194840308161704717484030806936
:1011E000084000D00120704710B5134C40346069AE
:1011F00001235B04984301238B4018431043606133
:1012000010BD0D484030426901238B409A43426132
:10121000704701208840084940318861704706487E
:101220004030806901228A40104000D00120704780
:101230007C020020FFFF000000000440F8B5069F7C
:101240000446202B00D10023D8000843104320601F
:10125000FFF78CFD6B4D0646A1682846102211430E
:10126000A160002F14D03946304600F0F9F9401C37
:101270004008401EA84200D928466168090C0904AC
:101280000143616041003046891C00F0E9F9F8BD76
:101290000021F6E705200007C268012109030A437F
:1012A000C260C2688A43C2607047016C0122114368
:1012B00001647047016C0222114301647047816828
:1012C000082291438160704710B583680524A343C9
:1012D00011430B4308210B43836010BD70B50D46CD
:1012E0000646FFF743FD0446A54200D90546002DFA
:1012F00014D02946204600F0B3F9401C4208521E83
:10130000FF2A00D9FF227068000A000210437060B3
:1013100051002046891C00F0A3F970BD002070BD6B
:1013200010B5036C33242406A34309070B431106AD
:101330000B4303640168012252051143016010BD93
:1013400001680122520591430160704710B50446BF
:10135000FFF70CFD61684008C9B2491C00F080F934
:1013600010BDCA0704D0026801235B041A4302605F
:101370004A0704D5C26B01239B021A43C2630A07C2
:1013800003D5026C08231A430264CA0603D5026C13
:1013900004231A4302648A0603D5026C40231A43CD
:1013A0000264490604D5016C01225205114301640F
:1013B0007047CA0704D0026801235B049A430260A5
:1013C0004A0704D5C26B01239B029A43C2630A07F2
:1013D00003D5026C08239A430264CA0603D5026C43
:1013E00004239A4302648A0603D5026C40239A437D
:1013F0000264490604D5016C01225205914301643F
:1014000070470000FFFF0000052109074A680243FA
:101410004A6070470520000780694006C00F70478A
:10142000052000074068704729480068C007C00FC2
:101430007047274900200860704710B559211623CE
:101440002348882202E00160036002600468012CE6
:10145000F9D110BD0520000700687047052000077E
:10146000816801221143816070470520000781686F
:101470000222114381607047010E8A00052109078D
:1014800051188B680122824013438B608868904317
:101490008860704710B50522120793690124234321
:1014A000936193690824A3430343936190690623DE
:1014B00098430843906110BD0520000781694908E1
:1014C00049008161816906221143816170470000F2
:1014D0000001005010B50446016829A000F06AF927
:1014E0002AA0616800F066F92BA0A16800F062F9FB
:1014F0002CA0E16800F05EF92DA0216900F05AF9F6
:101500002EA0616900F056F92FA0A16900F052F9F0
:1015100030A0E16900F04EF910BD044630A000F0A3
:1015200049F92046FFF7D6FFFEE733498A691202E0
:10153000FCD408600A2804D188690002FCD40D207C
:1015400008607047F1E72C4881694904FCD40068C1
:10155000C0B27047284880694004C017401C7047DB
:1015600025488069C000C00F7047DEE700B503461C
:10157000FFF7DBFF184600BDE5E70020C0437047DA
:10158000723020203D20307825780A0072312020EA
:101590003D20307825780A00723220203D203078B6
:1015A00025780A00723320203D20307825780A0003
:1015B000723132203D20307825780A006C7220206C
:1015C0003D20307825780A00706320203D20307857
:1015D00025780A00707372203D20307825780A0043
:1015E000496E2048617264204661756C74204861C0
:1015F0006E646C65720A00000000054003480047F5
:10160000FEE7FEE7FEE7FEE7FEE7FEE7C1000000BB
:1016100010B50D4A10694107490F11D0032911D0A7
:101620000A4891690907090F491C00F019F8084C8C
:10163000084920604A10801800F012F8606010BD60
:101640000548EEE70548ECE7000200500080510134
:101650007C02002040420F00001BB7001027000052
:1016600030B50B46014600202022012409E00D463A
:10167000D5409D4205D31D469540491B25469540C2
:1016800040191546521E002DF1DC30BDF0B51FB4D7
:101690000646002082B005464024019100901BE0E0
:1016A000019922460F46304600F020F8049A059B27
:1016B000801A994110D310461946224600F03AF894
:1016C000361A8F410197224601200021009F00F029
:1016D00031F838184D4100902046641E0028DFDCA8
:1016E000019B00982946324607B0F0BD10B5202A6C
:1016F00004DB0846203AD040002110BD0B46D34001
:10170000D0402024A21A91400843194610BD000081
:10171000064C0125064E05E0E36807CC2B430C3C44
:1017200098471034B442F7D3FEF7CEFC081B0000F4
:10173000281B000010B5202A04DB0146203A914006
:10174000002010BD914020239C1A0346E34019431A
:10175000904010BD30B5124800220262114B5A6110
:10176000114801688403A14301600F4920310D68CD
:10177000A5430D6005684403A54305600868A043C0
:101780000860FF20D86398630848418849084900E9
:10179000418081884908490081800548027030BD38
:1017A00040420050400004400000014084020020FC
:1017B000040000200FB410B503A9044B044A02989A
:1017C00000F024F810BC08BC04B018476D150000E8
:1017D0007802002030B47446641E2578641CAB4245
:1017E00000D21D46635D5B00E31830BC184702E081
:1017F00008C8121F08C1002AFAD17047704700209C
:1018000001E001C1121F002AFBD17047FFB58FB064
:101810000F460446002606E025280AD0129A1199A0
:101820009047641C761C20780028F5D1304613B010
:10183000F0BD00250121A14A009500E00543641C8C
:1018400023780846203B98401042F7D120782E2874
:1018500015D1042005436078641C2A280AD101CFE1
:10186000641C00900BE000990A2251433039401863
:10187000641C00902078014630390929F3D920787A
:101880006C280ED004DC4C2813D06A2812D104E056
:1018900074280ED07A280DD10BE0012040050543B5
:1018A00007E00121090562780D43824201D16D18DC
:1018B000641C641C2078864669284AD008DC00280D
:1018C000B4D058286DD0632810D0642808D140E0E7
:1018D00070286BD0732812D0752860D0782860D01B
:1018E000129A704611999047761CE5E0387869465F
:1018F00008720020487202A80190012003E03868B5
:1019000001900020C0433F1D69070CD5002500E071
:101910006D1C00998D420FDA8542F9DB0199495D12
:101920000029F5D108E0002500E06D1C8542FCDBB4
:101930000199495D0029F8D1761907E001980199CC
:101940000078491C0191129A119990476D1EF5D2A9
:10195000B2E00A20029000216802400F03910228A1
:101960000CD001CFC117844600290DDA6246084623
:1019700052420021814194462D2008E0FF1DFF08BE
:10198000FF0003CF8446EFE7280504D52B206A46E5
:10199000107401203CE0E8073AD02020F7E70A2045
:1019A00000E0102000210391029007E01020029037
:1019B0000021042005430820039100906802400F95
:1019C000022810D001CF0021844600200D90280766
:1019D0001FD5704670280CD0029A1020039B4240FD
:1019E0001A430CD015E0FF1DFF08FF0003CF84460B
:1019F000EBE740206A46107401200D900CE0604631
:101A0000084306D030206A46107470465074022095
:101A10000D907046582804D029A001900DA80E9072
:101A20000DE02CA0F9E76046039B029AFFF72EFE1B
:101A3000019B84469B5C0E9A521E0E921370604668
:101A40000843F0D10E9805A9081A203001906807C4
:101A500001D5009801E0012000900199884203DD42
:101A600001460198081A00E000200025009006E0D9
:101A700004A8129A405D119990476D1C761C0D9830
:101A80008542F5DB04E0129A302011999047761CCC
:101A90000099481E00900029F5DC08E00E980E9988
:101AA0000078491C0E91129A11999047761C019961
:101AB000481E01900029F1DC641CB4E609280100ED
:101AC00030313233343536373839616263646566B4
:101AD0000000000030313233343536373839414276
:101AE00043444546000000009001000090010000C2
:101AF000200300002003000020030000200300005A
:101B0000B004000000000000281B000000000020BE
:101B100084020000EE170000AC1D000084020020CB
:101B200034020000FE17000000000000000000006A
:101B300000000000000000000000000000000000A5
:101B40000000000000000000000000000000000095
:101B50000000000000000000000000000000000085
:101B600000000000000005800F800A001B801E009E
:101B700014001180338036003C00398028002D800D
:101B800027802200638066006C00698078007D8079
:101B900077807200500055805F805A004B804E0065
:101BA00044004180C380C600CC00C980D800DD80DD
:101BB000D780D200F000F580FF80FA00EB80EE00C5
:101BC000E400E180A000A580AF80AA00BB80BE0039
:101BD000B400B180938096009C00998088008D802D
:101BE00087808200838186018C01898198019D8193
:101BF00097819201B001B581BF81BA01AB81AE017D
:101C0000A401A181E001E581EF81EA01FB81FE01F0
:101C1000F401F181D381D601DC01D981C801CD81E4
:101C2000C781C201400145814F814A015B815E014C
:101C300054015181738176017C01798168016D8144
:101C400067816201238126012C01298138013D81B0
:101C500037813201100115811F811A010B810E019C
:101C600004010181038306030C03098318031D8308
:101C700017831203300335833F833A032B832E03EC
:101C800024032183600365836F836A037B837E0360
:101C900074037183538356035C03598348034D8354
:101CA00047834203C003C583CF83CA03DB83DE03BC
:101CB000D403D183F383F603FC03F983E803ED83B4
:101CC000E783E203A383A603AC03A983B803BD8320
:101CD000B783B203900395839F839A038B838E030C
:101CE00084038183800285828F828A029B829E0286
:101CF00094029182B382B602BC02B982A802AD827C
:101D0000A782A202E382E602EC02E982F802FD82E7
:101D1000F782F202D002D582DF82DA02CB82CE02D3
:101D2000C402C182438246024C02498258025D824B
:101D300057825202700275827F827A026B826E0233
:101D400064026182200225822F822A023B823E02A7
:101D500034023182138216021C02198208020D829B
:101D600007820202000000000000000000000000E6
:101D70000000000000000000000000000000000063
:101D80000000000000000000484200505042005097
:101D9000584200504C4200505442005010420050F3
:0C1DA0000000000000805101160000004F
:04000005000015FDE5
:00000001FF
